{
  "contractName": "GenericSwap",
  "abi": [
    {
      "constant": false,
      "inputs": [
        {
          "name": "ccyName",
          "type": "string"
        },
        {
          "name": "qty",
          "type": "uint256"
        },
        {
          "name": "hashedPassword",
          "type": "bytes32"
        },
        {
          "name": "cp",
          "type": "address"
        },
        {
          "name": "exp",
          "type": "uint256"
        }
      ],
      "name": "publish",
      "outputs": [],
      "payable": true,
      "stateMutability": "payable",
      "type": "function"
    },
    {
      "constant": false,
      "inputs": [
        {
          "name": "name",
          "type": "string"
        },
        {
          "name": "symbol",
          "type": "string"
        },
        {
          "name": "isToken",
          "type": "bool"
        },
        {
          "name": "tAddress",
          "type": "address"
        }
      ],
      "name": "addCurrency",
      "outputs": [],
      "payable": false,
      "stateMutability": "nonpayable",
      "type": "function"
    },
    {
      "constant": false,
      "inputs": [
        {
          "name": "hashedPassword",
          "type": "bytes32"
        }
      ],
      "name": "refund",
      "outputs": [],
      "payable": false,
      "stateMutability": "nonpayable",
      "type": "function"
    },
    {
      "constant": true,
      "inputs": [
        {
          "name": "",
          "type": "bytes32"
        }
      ],
      "name": "txs",
      "outputs": [
        {
          "name": "tradingParty",
          "type": "address"
        },
        {
          "name": "counterParty",
          "type": "address"
        },
        {
          "name": "ccy",
          "type": "string"
        },
        {
          "name": "qty",
          "type": "uint256"
        },
        {
          "name": "expirationDate",
          "type": "uint256"
        },
        {
          "name": "initDate",
          "type": "uint256"
        },
        {
          "name": "exist",
          "type": "bool"
        },
        {
          "name": "done",
          "type": "bool"
        }
      ],
      "payable": false,
      "stateMutability": "view",
      "type": "function"
    },
    {
      "constant": false,
      "inputs": [
        {
          "name": "secret",
          "type": "string"
        }
      ],
      "name": "claim",
      "outputs": [],
      "payable": false,
      "stateMutability": "nonpayable",
      "type": "function"
    },
    {
      "inputs": [],
      "payable": false,
      "stateMutability": "nonpayable",
      "type": "constructor"
    },
    {
      "anonymous": false,
      "inputs": [
        {
          "indexed": false,
          "name": "tradingParty",
          "type": "address"
        },
        {
          "indexed": false,
          "name": "counterParty",
          "type": "address"
        },
        {
          "indexed": false,
          "name": "ccy",
          "type": "string"
        },
        {
          "indexed": false,
          "name": "qty",
          "type": "uint256"
        },
        {
          "indexed": false,
          "name": "hashedPassword",
          "type": "bytes32"
        },
        {
          "indexed": false,
          "name": "expirationDate",
          "type": "uint256"
        }
      ],
      "name": "Initiated",
      "type": "event"
    },
    {
      "anonymous": false,
      "inputs": [
        {
          "indexed": false,
          "name": "counterParty",
          "type": "address"
        },
        {
          "indexed": false,
          "name": "ccy",
          "type": "string"
        },
        {
          "indexed": false,
          "name": "qty",
          "type": "uint256"
        },
        {
          "indexed": false,
          "name": "secret",
          "type": "string"
        }
      ],
      "name": "Claimed",
      "type": "event"
    },
    {
      "anonymous": false,
      "inputs": [
        {
          "indexed": false,
          "name": "tradingParty",
          "type": "address"
        },
        {
          "indexed": false,
          "name": "ccy",
          "type": "string"
        },
        {
          "indexed": false,
          "name": "qty",
          "type": "uint256"
        },
        {
          "indexed": false,
          "name": "hashedPassword",
          "type": "bytes32"
        }
      ],
      "name": "Refunded",
      "type": "event"
    },
    {
      "anonymous": false,
      "inputs": [
        {
          "indexed": false,
          "name": "symbol",
          "type": "string"
        },
        {
          "indexed": false,
          "name": "name",
          "type": "string"
        },
        {
          "indexed": false,
          "name": "tokenAddress",
          "type": "address"
        }
      ],
      "name": "CurrencyAdded",
      "type": "event"
    }
  ],
  "bytecode": "0x6060604052341561000f57600080fd5b336000806101000a81548173ffffffffffffffffffffffffffffffffffffffff021916908373ffffffffffffffffffffffffffffffffffffffff160217905550611b6d8061005e6000396000f30060606040526004361061006d576000357c0100000000000000000000000000000000000000000000000000000000900463ffffffff16806321a8528b14610072578063512a5a33146101025780637249fbb6146101cc578063986ba392146101f3578063f3fe12c914610341575b600080fd5b610100600480803590602001908201803590602001908080601f016020809104026020016040519081016040528093929190818152602001838380828437820191505050505050919080359060200190919080356000191690602001909190803573ffffffffffffffffffffffffffffffffffffffff1690602001909190803590602001909190505061039e565b005b341561010d57600080fd5b6101ca600480803590602001908201803590602001908080601f0160208091040260200160405190810160405280939291908181526020018383808284378201915050505050509190803590602001908201803590602001908080601f01602080910402602001604051908101604052809392919081815260200183838082843782019150505050505091908035151590602001909190803573ffffffffffffffffffffffffffffffffffffffff169060200190919050506105dc565b005b34156101d757600080fd5b6101f1600480803560001916906020019091905050610a5d565b005b34156101fe57600080fd5b610218600480803560001916906020019091905050610fe5565b604051808973ffffffffffffffffffffffffffffffffffffffff1673ffffffffffffffffffffffffffffffffffffffff1681526020018873ffffffffffffffffffffffffffffffffffffffff1673ffffffffffffffffffffffffffffffffffffffff16815260200180602001878152602001868152602001858152602001841515151581526020018315151515815260200182810382528881815460018160011615610100020316600290048152602001915080546001816001161561010002031660029004801561032b5780601f106103005761010080835404028352916020019161032b565b820191906000526020600020905b81548152906001019060200180831161030e57829003601f168201915b5050995050505050505050505060405180910390f35b341561034c57600080fd5b61039c600480803590602001908201803590602001908080601f01602080910402602001604051908101604052809392919081815260200183838082843782019150505050505091905050611086565b005b60008060006002886040518082805190602001908083835b6020831015156103db57805182526020820191506020810190506020830392506103b6565b6001836020036101000a0380198251168184511680821785525050505050509050019150509081526020016040518091039020925060016000876000191660001916815260200190815260200160002060060160009054906101000a900460ff1615801561045757508260010160159054906101000a900460ff165b156105d2576000600181111561046957fe5b8360010160009054906101000a900460ff16600181111561048657fe5b14156105c0578260010160019054906101000a900473ffffffffffffffffffffffffffffffffffffffff1690508073ffffffffffffffffffffffffffffffffffffffff166323b872dd33308a6000604051602001526040518463ffffffff167c0100000000000000000000000000000000000000000000000000000000028152600401808473ffffffffffffffffffffffffffffffffffffffff1673ffffffffffffffffffffffffffffffffffffffff1681526020018373ffffffffffffffffffffffffffffffffffffffff1673ffffffffffffffffffffffffffffffffffffffff1681526020018281526020019350505050602060405180830381600087803b151561059257600080fd5b6102c65a03f115156105a357600080fd5b5050506040518051905015156105b857600080fd5b8691506105c4565b3491505b6105d1888388888861178e565b5b5050505050505050565b6000809054906101000a900473ffffffffffffffffffffffffffffffffffffffff1673ffffffffffffffffffffffffffffffffffffffff163373ffffffffffffffffffffffffffffffffffffffff1614151561063757600080fd5b6002836040518082805190602001908083835b60208310151561066f578051825260208201915060208101905060208303925061064a565b6001836020036101000a038019825116818451168082178552505050505050905001915050908152602001604051809103902060010160159054906101000a900460ff161515156106bf57600080fd5b836002846040518082805190602001908083835b6020831015156106f857805182526020820191506020810190506020830392506106d3565b6001836020036101000a03801982511681845116808217855250505050505090500191505090815260200160405180910390206000019080519060200190610741929190611a9c565b508161074e576001610751565b60005b6002846040518082805190602001908083835b6020831015156107895780518252602082019150602081019050602083039250610764565b6001836020036101000a038019825116818451168082178552505050505050905001915050908152602001604051809103902060010160006101000a81548160ff021916908360018111156107da57fe5b0217905550811561089357806002846040518082805190602001908083835b60208310151561081e57805182526020820191506020810190506020830392506107f9565b6001836020036101000a038019825116818451168082178552505050505050905001915050908152602001604051809103902060010160016101000a81548173ffffffffffffffffffffffffffffffffffffffff021916908373ffffffffffffffffffffffffffffffffffffffff1602179055505b60016002846040518082805190602001908083835b6020831015156108cd57805182526020820191506020810190506020830392506108a8565b6001836020036101000a038019825116818451168082178552505050505050905001915050908152602001604051809103902060010160156101000a81548160ff0219169083151502179055507faad709acd7e80bf2306fd6bebb85e10476926778d7b97337dd6120a5e79b9f4a8385836040518080602001806020018473ffffffffffffffffffffffffffffffffffffffff1673ffffffffffffffffffffffffffffffffffffffff168152602001838103835286818151815260200191508051906020019080838360005b838110156109b4578082015181840152602081019050610999565b50505050905090810190601f1680156109e15780820380516001836020036101000a031916815260200191505b50838103825285818151815260200191508051906020019080838360005b83811015610a1a5780820151818401526020810190506109ff565b50505050905090810190601f168015610a475780820380516001836020036101000a031916815260200191505b509550505050505060405180910390a150505050565b6000808260008060016000846000191660001916815260200190815260200160002060060160009054906101000a900460ff168015610b0557503373ffffffffffffffffffffffffffffffffffffffff1660016000856000191660001916815260200190815260200160002060000160009054906101000a900473ffffffffffffffffffffffffffffffffffffffff1673ffffffffffffffffffffffffffffffffffffffff16145b9150600160008460001916600019168152602001908152602001600020600401544211905060016000846000191660001916815260200190815260200160002060060160019054906101000a900460ff16158015610b605750815b8015610b695750805b1515610b7457600080fd5b6001806000886000191660001916815260200190815260200160002060060160016101000a81548160ff02191690831515021790555060026001600088600019166000191681526020019081526020016000206002016040518082805460018160011615610100020316600290048015610c255780601f10610c03576101008083540402835291820191610c25565b820191906000526020600020905b815481529060010190602001808311610c11575b50509150509081526020016040518091039020945060006001811115610c4757fe5b8560010160009054906101000a900460ff166001811115610c6457fe5b1415610dc3578460010160019054906101000a900473ffffffffffffffffffffffffffffffffffffffff1693508373ffffffffffffffffffffffffffffffffffffffff1663a9059cbb60016000896000191660001916815260200190815260200160002060000160009054906101000a900473ffffffffffffffffffffffffffffffffffffffff16600160008a60001916600019168152602001908152602001600020600301546000604051602001526040518363ffffffff167c0100000000000000000000000000000000000000000000000000000000028152600401808373ffffffffffffffffffffffffffffffffffffffff1673ffffffffffffffffffffffffffffffffffffffff16815260200182815260200192505050602060405180830381600087803b1515610d9857600080fd5b6102c65a03f11515610da957600080fd5b505050604051805190501515610dbe57600080fd5b610e60565b60016000876000191660001916815260200190815260200160002060000160009054906101000a900473ffffffffffffffffffffffffffffffffffffffff1673ffffffffffffffffffffffffffffffffffffffff166108fc600160008960001916600019168152602001908152602001600020600301549081150290604051600060405180830381858888f193505050501515610e5f57600080fd5b5b7e9e0c2e9b0bfeeb0751b5fc25b81b14f694589e87688e631e54e79102f5680560016000886000191660001916815260200190815260200160002060000160009054906101000a900473ffffffffffffffffffffffffffffffffffffffff16600160008960001916600019168152602001908152602001600020600201600160008a600019166000191681526020019081526020016000206003015489604051808573ffffffffffffffffffffffffffffffffffffffff1673ffffffffffffffffffffffffffffffffffffffff168152602001806020018481526020018360001916600019168152602001828103825285818154600181600116156101000203166002900481526020019150805460018160011615610100020316600290048015610fcc5780601f10610fa157610100808354040283529160200191610fcc565b820191906000526020600020905b815481529060010190602001808311610faf57829003601f168201915b50509550505050505060405180910390a1505050505050565b60016020528060005260406000206000915090508060000160009054906101000a900473ffffffffffffffffffffffffffffffffffffffff16908060010160009054906101000a900473ffffffffffffffffffffffffffffffffffffffff169080600201908060030154908060040154908060050154908060060160009054906101000a900460ff16908060060160019054906101000a900460ff16905088565b60008060008360008060006002846000604051602001526040518082805190602001908083835b6020831015156110d257805182526020820191506020810190506020830392506110ad565b6001836020036101000a03801982511681845116808217855250505050505090500191505060206040518083038160008661646e5a03f1151561111457600080fd5b505060405180519050925060016000846000191660001916815260200190815260200160002060060160009054906101000a900460ff1680156111c057503373ffffffffffffffffffffffffffffffffffffffff1660016000856000191660001916815260200190815260200160002060010160009054906101000a900473ffffffffffffffffffffffffffffffffffffffff1673ffffffffffffffffffffffffffffffffffffffff16145b9150600160008460001916600019168152602001908152602001600020600401544210905060016000846000191660001916815260200190815260200160002060060160019054906101000a900460ff1615801561121b5750815b80156112245750805b151561122f57600080fd5b6002886000604051602001526040518082805190602001908083835b602083101515611270578051825260208201915060208101905060208303925061124b565b6001836020036101000a03801982511681845116808217855250505050505090500191505060206040518083038160008661646e5a03f115156112b257600080fd5b50506040518051905096506001806000896000191660001916815260200190815260200160002060060160016101000a81548160ff0219169083151502179055506002600160008960001916600019168152602001908152602001600020600201604051808280546001816001161561010002031660029004801561136e5780601f1061134c57610100808354040283529182019161136e565b820191906000526020600020905b81548152906001019060200180831161135a575b5050915050908152602001604051809103902095506000600181111561139057fe5b8660010160009054906101000a900460ff1660018111156113ad57fe5b141561150c578560010160019054906101000a900473ffffffffffffffffffffffffffffffffffffffff1694508473ffffffffffffffffffffffffffffffffffffffff1663a9059cbb600160008a6000191660001916815260200190815260200160002060010160009054906101000a900473ffffffffffffffffffffffffffffffffffffffff16600160008b60001916600019168152602001908152602001600020600301546000604051602001526040518363ffffffff167c0100000000000000000000000000000000000000000000000000000000028152600401808373ffffffffffffffffffffffffffffffffffffffff1673ffffffffffffffffffffffffffffffffffffffff16815260200182815260200192505050602060405180830381600087803b15156114e157600080fd5b6102c65a03f115156114f257600080fd5b50505060405180519050151561150757600080fd5b6115a9565b60016000886000191660001916815260200190815260200160002060010160009054906101000a900473ffffffffffffffffffffffffffffffffffffffff1673ffffffffffffffffffffffffffffffffffffffff166108fc600160008a60001916600019168152602001908152602001600020600301549081150290604051600060405180830381858888f1935050505015156115a857600080fd5b5b7f098ab2e66e4a44f3d5a2e7f0ee5820b087e3da3f3d8198b3ea4dbe84652f997d60016000896000191660001916815260200190815260200160002060010160009054906101000a900473ffffffffffffffffffffffffffffffffffffffff16600160008a60001916600019168152602001908152602001600020600201600160008b60001916600019168152602001908152602001600020600301548b604051808573ffffffffffffffffffffffffffffffffffffffff1673ffffffffffffffffffffffffffffffffffffffff168152602001806020018481526020018060200183810383528681815460018160011615610100020316600290048152602001915080546001816001161561010002031660029004801561170c5780601f106116e15761010080835404028352916020019161170c565b820191906000526020600020905b8154815290600101906020018083116116ef57829003601f168201915b5050838103825284818151815260200191508051906020019080838360005b8381101561174657808201518184015260208101905061172b565b50505050905090810190601f1680156117735780820380516001836020036101000a031916815260200191505b50965050505050505060405180910390a15050505050505050565b6001806000856000191660001916815260200190815260200160002060060160006101000a81548160ff0219169083151502179055508460016000856000191660001916815260200190815260200160002060020190805190602001906117f6929190611a9c565b503360016000856000191660001916815260200190815260200160002060000160006101000a81548173ffffffffffffffffffffffffffffffffffffffff021916908373ffffffffffffffffffffffffffffffffffffffff1602179055508160016000856000191660001916815260200190815260200160002060010160006101000a81548173ffffffffffffffffffffffffffffffffffffffff021916908373ffffffffffffffffffffffffffffffffffffffff1602179055508360016000856000191660001916815260200190815260200160002060030181905550426001600085600019166000191681526020019081526020016000206005018190555080420160016000856000191660001916815260200190815260200160002060040181905550600060016000856000191660001916815260200190815260200160002060060160016101000a81548160ff0219169083151502179055507f2075c73ba4be31e56b536bef36edce09cbf10dda089cdaec68ec67da0abe73743383878787600160008a6000191660001916815260200190815260200160002060040154604051808773ffffffffffffffffffffffffffffffffffffffff1673ffffffffffffffffffffffffffffffffffffffff1681526020018673ffffffffffffffffffffffffffffffffffffffff1673ffffffffffffffffffffffffffffffffffffffff168152602001806020018581526020018460001916600019168152602001838152602001828103825286818151815260200191508051906020019080838360005b83811015611a56578082015181840152602081019050611a3b565b50505050905090810190601f168015611a835780820380516001836020036101000a031916815260200191505b5097505050505050505060405180910390a15050505050565b828054600181600116156101000203166002900490600052602060002090601f016020900481019282601f10611add57805160ff1916838001178555611b0b565b82800160010185558215611b0b579182015b82811115611b0a578251825591602001919060010190611aef565b5b509050611b189190611b1c565b5090565b611b3e91905b80821115611b3a576000816000905550600101611b22565b5090565b905600a165627a7a72305820f5acbbe0e469486a6463bab7479f87ffe4a91652ebdc986226fef13524db0aaa0029",
  "source": "contract ERC20 {\n    function totalSupply() public view returns (uint supply);\n\n    function balanceOf(address who) public view returns (uint value);\n\n    function allowance(address owner, address spender) public view returns (uint _allowance);\n\n    function transfer(address to, uint value) public returns (bool ok);\n\n    function transferFrom(address from, address to, uint value) public returns (bool ok);\n\n    function approve(address spender, uint value) public returns (bool ok);\n\n    event Transfer(address indexed from, address indexed to, uint value);\n}\n\n\ncontract GenericSwap {\n\n    // Members\n    address owner;\n\n    mapping (bytes32 => TX) public txs;\n\n    mapping (string => Currency) ccys;\n\n    // Types\n    enum ccyType{Token, Native}\n\n    // Public transaction of alice or bob\n    struct TX {\n    address tradingParty;\n    address counterParty;\n    string ccy;\n    uint256 qty;\n    uint expirationDate;\n    uint initDate;\n    bool exist;\n    bool done;\n    }\n\n    // Currency type for additional tokens in the future\n    struct Currency {\n    string name;\n    ccyType cType;\n    address tokenAddress;\n    bool exist;\n    }\n\n    // Events\n    event Initiated(address tradingParty, address counterParty, string ccy, uint256 qty,\n    bytes32 hashedPassword, uint256 expirationDate);\n\n    event Claimed(address counterParty, string ccy, uint256 qty, string secret);\n\n    event Refunded(address tradingParty, string ccy, uint256 qty, bytes32 hashedPassword);\n\n    event CurrencyAdded(string symbol, string name, address tokenAddress);\n\n\n    // Constructor\n\n    function GenericSwap(){\n        owner = msg.sender;\n    }\n\n\n    // Modifiers\n\n    // Check if the counter party is able to redeem the \"signed\" tx\n    modifier canClaim(string secret){\n        bytes32 hashedPassword = sha256(secret);\n        bool txCheck = txs[hashedPassword].exist && txs[hashedPassword].counterParty == msg.sender;\n        bool timeCheck = now < txs[hashedPassword].expirationDate;\n        require(!txs[hashedPassword].done && txCheck && timeCheck);\n        _;\n\n    }\n\n    // Check if the counter party is able to refund the tx\n    modifier canRefund(bytes32 hashedPassword) {\n        bool txCheck = txs[hashedPassword].exist && txs[hashedPassword].tradingParty == msg.sender;\n        bool timeCheck = now > txs[hashedPassword].expirationDate;\n        require(!txs[hashedPassword].done && txCheck && timeCheck);\n        _;\n    }\n\n    modifier isOwner {\n        require(msg.sender == owner);\n        _;\n    }\n\n\n\n    // Methods\n\n    // addCurrency\n    //\n    // @param name     - ccy name\n    // @param symbol   - ccy symbol\n    // @param isToken  - true only if token\n    // @param tAddress - ERC20 based token address\n    //\n    function addCurrency(string name, string symbol, bool isToken, address tAddress) isOwner public {\n        require(!ccys[symbol].exist);\n        ccys[symbol].name = name;\n        ccys[symbol].cType = isToken ? ccyType.Token : ccyType.Native;\n        if (isToken) {\n            ccys[symbol].tokenAddress = tAddress;\n        }\n        ccys[symbol].exist = true;\n        CurrencyAdded(symbol, name, tAddress);\n    }\n\n\n    // publish\n    //\n    // @param ccyName        - the traded token/native currency name\n    // @param qty            - the amount to send to the contract\n    // @param hashedPassword - sha256 hashed password\n    // @param cp             - the counterparty address\n    // @param exp            - expiration time of the trade millis\n    //\n    function publish(string ccyName, uint256 qty, bytes32 hashedPassword, address cp, uint exp) payable public {\n        Currency storage ccy = ccys[ccyName];\n        uint256 quantity;\n        if (!txs[hashedPassword].exist && ccy.exist) {\n            if (ccy.cType == ccyType.Token) {\n                ERC20 erc = ERC20(ccy.tokenAddress);\n                require(erc.transferFrom(msg.sender, this, qty));\n                quantity = qty;\n            }\n            else {\n                quantity = msg.value;\n            }\n            createTx(ccyName, quantity, hashedPassword, cp, exp);\n        }\n    }\n\n    // createTx - internal\n    // Storing the new tx and triggering the Initiated Event\n    //\n    // @param ccyName        - the traded token/native currency name\n    // @param qty            - the amount to send to the contract\n    // @param hashedPassword - sha256 hashed password\n    // @param cp             - the counterparty address\n    // @param exp            - expiration time of the trade millis\n    //\n    function createTx(string ccyName, uint256 qty, bytes32 hashedPassword, address cp, uint exp) private {\n        txs[hashedPassword].exist = true;\n        txs[hashedPassword].ccy = ccyName;\n        txs[hashedPassword].tradingParty = msg.sender;\n        txs[hashedPassword].counterParty = cp;\n        txs[hashedPassword].qty = qty;\n        txs[hashedPassword].initDate = now;\n        txs[hashedPassword].expirationDate = now + exp;\n        txs[hashedPassword].done = false;\n        Initiated(msg.sender, cp, ccyName, qty, hashedPassword, txs[hashedPassword].expirationDate);\n    }\n\n    // claim\n    // Spending the tx\n    //\n    // @param secret - transaction secret(not hashed)\n    function claim(string secret) canClaim(secret) public {\n        bytes32 hashedPassword = sha256(secret);\n        txs[hashedPassword].done = true;\n        Currency storage ccy = ccys[txs[hashedPassword].ccy];\n        if (ccy.cType == ccyType.Token) {\n            ERC20 erc = ERC20(ccy.tokenAddress);\n            require(erc.transfer(txs[hashedPassword].counterParty, txs[hashedPassword].qty));\n        }\n        else {\n            txs[hashedPassword].counterParty.transfer(txs[hashedPassword].qty);\n        }\n        Claimed(txs[hashedPassword].counterParty, txs[hashedPassword].ccy, txs[hashedPassword].qty, secret);\n    }\n\n    // refund\n    //\n    // @param hashedPassword - sha256 hashed password\n    function refund(bytes32 hashedPassword) canRefund(hashedPassword) public {\n        txs[hashedPassword].done = true;\n        Currency storage ccy = ccys[txs[hashedPassword].ccy];\n        if (ccy.cType == ccyType.Token) {\n            ERC20 erc = ERC20(ccy.tokenAddress);\n            require(erc.transfer(txs[hashedPassword].tradingParty, txs[hashedPassword].qty));\n        }\n        else {\n            txs[hashedPassword].tradingParty.transfer(txs[hashedPassword].qty);\n        }\n        Refunded(txs[hashedPassword].tradingParty, txs[hashedPassword].ccy, txs[hashedPassword].qty, hashedPassword);\n    }\n\n\n}",
  "sourcePath": "/Users/ordemri/projects/atomic-swap/contracts/GenericSwap.sol",
  "compiler": {
    "name": "solc",
    "version": "0.4.18+commit.9cf6e910.Emscripten.clang"
  },
  "schemaVersion": "1.0.1",
  "updatedAt": "2017-12-18T12:05:44.807Z"
}